[
    {
        "Id": 1,
        "From": "deposit.From",
        "To": "0xccff350ef46b85228d6650a802107e58bf6a32ab",
        "AmountOrNftTokenId": "2090000",
        "Nonce": 0,
        "CurrencyOrNftContractAddress": "0xE9573B8A0AF951431bcBD194E8cc3AeE654Cd723",
        "Type": "deposit",
        "Signature": "deposit.Signature",
        "IsInvalid": false,
        "L2Minted": false,
        "Data": "deposit.Message",
        "NumeFees": "0",
        "MintFees": "",
        "MintFeesToken": "",
        "CreatedAt": "2023-06-15T12:53:46.42713+05:30"
    },
    {
        "Id": 2,
        "From": "deposit.From",
        "To": "0x1b34b2f706cda183e4818d2ceaf58253ccab3428",
        "AmountOrNftTokenId": "17315",
        "Nonce": 0,
        "CurrencyOrNftContractAddress": "0x799c6832d187243f3367902079A72fb3Fd61cdF7",
        "Type": "deposit",
        "Signature": "deposit.Signature",
        "IsInvalid": false,
        "L2Minted": false,
        "Data": "deposit.Message",
        "NumeFees": "0",
        "MintFees": "",
        "MintFeesToken": "",
        "CreatedAt": "2023-06-15T12:53:46.42713+05:30"
    },
    {
        "Id": 3,
        "From": "deposit.From",
        "To": "0x11c830b25a15e39006094377fdc409c11c002b48",
        "AmountOrNftTokenId": "9140000",
        "Nonce": 0,
        "CurrencyOrNftContractAddress": "0xE9573B8A0AF951431bcBD194E8cc3AeE654Cd723",
        "Type": "deposit",
        "Signature": "deposit.Signature",
        "IsInvalid": false,
        "L2Minted": false,
        "Data": "deposit.Message",
        "NumeFees": "0",
        "MintFees": "",
        "MintFeesToken": "",
        "CreatedAt": "2023-06-15T12:53:46.42713+05:30"
    },
    {
        "Id": 4,
        "From": "deposit.From",
        "To": "0xa9b39cb5ebf5deb0818561e8bc64092fbde34613",
        "AmountOrNftTokenId": "13859",
        "Nonce": 0,
        "CurrencyOrNftContractAddress": "0x799c6832d187243f3367902079A72fb3Fd61cdF7",
        "Type": "deposit",
        "Signature": "deposit.Signature",
        "IsInvalid": false,
        "L2Minted": false,
        "Data": "deposit.Message",
        "NumeFees": "0",
        "MintFees": "",
        "MintFeesToken": "",
        "CreatedAt": "2023-06-15T12:53:46.42713+05:30"
    },
    {
        "Id": 5,
        "From": "deposit.From",
        "To": "0x46714661eecb6f07065dcb4bf3d9b772dcefa63a",
        "AmountOrNftTokenId": "2880000",
        "Nonce": 0,
        "CurrencyOrNftContractAddress": "0xCE47C48fDF8c9355FDbE4DacC1e1954914D65Be6",
        "Type": "deposit",
        "Signature": "deposit.Signature",
        "IsInvalid": false,
        "L2Minted": false,
        "Data": "deposit.Message",
        "NumeFees": "0",
        "MintFees": "",
        "MintFeesToken": "",
        "CreatedAt": "2023-06-15T12:53:46.42713+05:30"
    },
    {
        "Id": 6,
        "From": "deposit.From",
        "To": "0xc8902116932225cc2e5d21d090574a54c10dc21b",
        "AmountOrNftTokenId": "5420000000000000000",
        "Nonce": 0,
        "CurrencyOrNftContractAddress": "0xEe146Fac7b2fce5FdBE31C36d89cF92f6b006F80",
        "Type": "deposit",
        "Signature": "deposit.Signature",
        "IsInvalid": false,
        "L2Minted": false,
        "Data": "deposit.Message",
        "NumeFees": "0",
        "MintFees": "",
        "MintFeesToken": "",
        "CreatedAt": "2023-06-15T12:53:46.42713+05:30"
    },
    {
        "Id": 7,
        "From": "deposit.From",
        "To": "0x995227bd4dbfcd247fd7c97edba86c4ad46bfb05",
        "AmountOrNftTokenId": "35088",
        "Nonce": 0,
        "CurrencyOrNftContractAddress": "0x799c6832d187243f3367902079A72fb3Fd61cdF7",
        "Type": "deposit",
        "Signature": "deposit.Signature",
        "IsInvalid": false,
        "L2Minted": false,
        "Data": "deposit.Message",
        "NumeFees": "0",
        "MintFees": "",
        "MintFeesToken": "",
        "CreatedAt": "2023-06-15T12:53:46.42713+05:30"
    },
    {
        "Id": 8,
        "From": "deposit.From",
        "To": "0xe9e2d5240237955f5955c28cd9ee9d5f66800cf1",
        "AmountOrNftTokenId": "8610000",
        "Nonce": 0,
        "CurrencyOrNftContractAddress": "0xCE47C48fDF8c9355FDbE4DacC1e1954914D65Be6",
        "Type": "deposit",
        "Signature": "deposit.Signature",
        "IsInvalid": false,
        "L2Minted": false,
        "Data": "deposit.Message",
        "NumeFees": "0",
        "MintFees": "",
        "MintFeesToken": "",
        "CreatedAt": "2023-06-15T12:53:46.42713+05:30"
    },
    {
        "Id": 9,
        "From": "deposit.From",
        "To": "0xccff350ef46b85228d6650a802107e58bf6a32ab",
        "AmountOrNftTokenId": "24720000000000000000",
        "Nonce": 0,
        "CurrencyOrNftContractAddress": "0xEe146Fac7b2fce5FdBE31C36d89cF92f6b006F80",
        "Type": "deposit",
        "Signature": "deposit.Signature",
        "IsInvalid": false,
        "L2Minted": false,
        "Data": "deposit.Message",
        "NumeFees": "0",
        "MintFees": "",
        "MintFeesToken": "",
        "CreatedAt": "2023-06-15T12:53:46.42713+05:30"
    },
    {
        "Id": 10,
        "From": "deposit.From",
        "To": "0x1b34b2f706cda183e4818d2ceaf58253ccab3428",
        "AmountOrNftTokenId": "19050000000000000000",
        "Nonce": 0,
        "CurrencyOrNftContractAddress": "0xEe146Fac7b2fce5FdBE31C36d89cF92f6b006F80",
        "Type": "deposit",
        "Signature": "deposit.Signature",
        "IsInvalid": false,
        "L2Minted": false,
        "Data": "deposit.Message",
        "NumeFees": "0",
        "MintFees": "",
        "MintFeesToken": "",
        "CreatedAt": "2023-06-15T12:53:46.42713+05:30"
    },
    {
        "Id": 11,
        "From": "deposit.From",
        "To": "0x11c830b25a15e39006094377fdc409c11c002b48",
        "AmountOrNftTokenId": "28000000000000000000",
        "Nonce": 0,
        "CurrencyOrNftContractAddress": "0xEe146Fac7b2fce5FdBE31C36d89cF92f6b006F80",
        "Type": "deposit",
        "Signature": "deposit.Signature",
        "IsInvalid": false,
        "L2Minted": false,
        "Data": "deposit.Message",
        "NumeFees": "0",
        "MintFees": "",
        "MintFeesToken": "",
        "CreatedAt": "2023-06-15T12:53:46.42713+05:30"
    },
    {
        "Id": 12,
        "From": "deposit.From",
        "To": "0xa9b39cb5ebf5deb0818561e8bc64092fbde34613",
        "AmountOrNftTokenId": "27770000000000000000",
        "Nonce": 0,
        "CurrencyOrNftContractAddress": "0xEe146Fac7b2fce5FdBE31C36d89cF92f6b006F80",
        "Type": "deposit",
        "Signature": "deposit.Signature",
        "IsInvalid": false,
        "L2Minted": false,
        "Data": "deposit.Message",
        "NumeFees": "0",
        "MintFees": "",
        "MintFeesToken": "",
        "CreatedAt": "2023-06-15T12:53:46.42713+05:30"
    },
    {
        "Id": 13,
        "From": "deposit.From",
        "To": "0x46714661eecb6f07065dcb4bf3d9b772dcefa63a",
        "AmountOrNftTokenId": "15150000000000000000",
        "Nonce": 0,
        "CurrencyOrNftContractAddress": "0xEe146Fac7b2fce5FdBE31C36d89cF92f6b006F80",
        "Type": "deposit",
        "Signature": "deposit.Signature",
        "IsInvalid": false,
        "L2Minted": false,
        "Data": "deposit.Message",
        "NumeFees": "0",
        "MintFees": "",
        "MintFeesToken": "",
        "CreatedAt": "2023-06-15T12:53:46.42713+05:30"
    },
    {
        "Id": 14,
        "From": "deposit.From",
        "To": "0xc8902116932225cc2e5d21d090574a54c10dc21b",
        "AmountOrNftTokenId": "13650000000000000000",
        "Nonce": 0,
        "CurrencyOrNftContractAddress": "0xEe146Fac7b2fce5FdBE31C36d89cF92f6b006F80",
        "Type": "deposit",
        "Signature": "deposit.Signature",
        "IsInvalid": false,
        "L2Minted": false,
        "Data": "deposit.Message",
        "NumeFees": "0",
        "MintFees": "",
        "MintFeesToken": "",
        "CreatedAt": "2023-06-15T12:53:46.42713+05:30"
    },
    {
        "Id": 15,
        "From": "deposit.From",
        "To": "0x995227bd4dbfcd247fd7c97edba86c4ad46bfb05",
        "AmountOrNftTokenId": "25260000000000000000",
        "Nonce": 0,
        "CurrencyOrNftContractAddress": "0xEe146Fac7b2fce5FdBE31C36d89cF92f6b006F80",
        "Type": "deposit",
        "Signature": "deposit.Signature",
        "IsInvalid": false,
        "L2Minted": false,
        "Data": "deposit.Message",
        "NumeFees": "0",
        "MintFees": "",
        "MintFeesToken": "",
        "CreatedAt": "2023-06-15T12:53:46.42713+05:30"
    },
    {
        "Id": 16,
        "From": "deposit.From",
        "To": "0xe9e2d5240237955f5955c28cd9ee9d5f66800cf1",
        "AmountOrNftTokenId": "16800000000000000000",
        "Nonce": 0,
        "CurrencyOrNftContractAddress": "0xEe146Fac7b2fce5FdBE31C36d89cF92f6b006F80",
        "Type": "deposit",
        "Signature": "deposit.Signature",
        "IsInvalid": false,
        "L2Minted": false,
        "Data": "deposit.Message",
        "NumeFees": "0",
        "MintFees": "",
        "MintFeesToken": "",
        "CreatedAt": "2023-06-15T12:53:46.42713+05:30"
    },
    {
        "Id": 1,
        "From": "0xccff350ef46b85228d6650a802107e58bf6a32ab",
        "To": "0x11c830b25a15e39006094377fdc409c11c002b48",
        "AmountOrNftTokenId": "2299999999999999744",
        "Nonce": 1,
        "CurrencyOrNftContractAddress": "0xEe146Fac7b2fce5FdBE31C36d89cF92f6b006F80",
        "Type": "transfer",
        "Signature": "3f722e729b50550b72a817588f5ef01535f4d6a5355b0ea67d31f689e852734a608c0b47c055fe5d2d9595e7bfb780f92087b4cbb23b63fcdd368505f3b117da01",
        "IsInvalid": false,
        "L2Minted": false,
        "Data": "0x02f8af8202c601808601d1a94a20008261a894ee146fac7b2fce5fdbe31c36d89cf92f6b006f8080b844a9059cbb00000000000000000000000011c830b25a15e39006094377fdc409c11c002b480000000000000000000000000000000000000000000000001feb3dd06765ff00c001a03f722e729b50550b72a817588f5ef01535f4d6a5355b0ea67d31f689e852734aa0608c0b47c055fe5d2d9595e7bfb780f92087b4cbb23b63fcdd368505f3b117da",
        "NumeFees": "50000000000000000",
        "MintFees": "",
        "MintFeesToken": "",
        "CreatedAt": "2023-06-15T12:54:54.631887+05:30"
    },
    {
        "Id": 2,
        "From": "0x1b34b2f706cda183e4818d2ceaf58253ccab3428",
        "To": "0xe9e2d5240237955f5955c28cd9ee9d5f66800cf1",
        "AmountOrNftTokenId": "1600000000000000000",
        "Nonce": 1,
        "CurrencyOrNftContractAddress": "0xEe146Fac7b2fce5FdBE31C36d89cF92f6b006F80",
        "Type": "transfer",
        "Signature": "8125f10c30258e2d486bce7c19fe08e55fbb3e460c6cc307eb86b2fdc4f1993518523978c2e1321a2be54c1090ca3616e38b6619aa65699d44fa876899d6a78000",
        "IsInvalid": false,
        "L2Minted": false,
        "Data": "0x02f8af8202c601808601d1a94a20008261a894ee146fac7b2fce5fdbe31c36d89cf92f6b006f8080b844a9059cbb000000000000000000000000e9e2d5240237955f5955c28cd9ee9d5f66800cf100000000000000000000000000000000000000000000000016345785d8a00000c080a08125f10c30258e2d486bce7c19fe08e55fbb3e460c6cc307eb86b2fdc4f19935a018523978c2e1321a2be54c1090ca3616e38b6619aa65699d44fa876899d6a780",
        "NumeFees": "50000000000000000",
        "MintFees": "",
        "MintFeesToken": "",
        "CreatedAt": "2023-06-15T12:54:54.659318+05:30"
    },
    {
        "Id": 3,
        "From": "0x11c830b25a15e39006094377fdc409c11c002b48",
        "To": "0xccff350ef46b85228d6650a802107e58bf6a32ab",
        "AmountOrNftTokenId": "500000",
        "Nonce": 1,
        "CurrencyOrNftContractAddress": "0xE9573B8A0AF951431bcBD194E8cc3AeE654Cd723",
        "Type": "transfer",
        "Signature": "de409e10bfc04aca09061120f7bf22c5585b3a72651469779f9c63ddbe9515266f47d4c21b5b914ef9c35af294a0e482cd2c9d9569ca1e3e957c36b959d998a701",
        "IsInvalid": false,
        "L2Minted": false,
        "Data": "0x02f8af8202c601808601d1a94a20008261a894e9573b8a0af951431bcbd194e8cc3aee654cd72380b844a9059cbb000000000000000000000000ccff350ef46b85228d6650a802107e58bf6a32ab000000000000000000000000000000000000000000000000000000000007a120c001a0de409e10bfc04aca09061120f7bf22c5585b3a72651469779f9c63ddbe951526a06f47d4c21b5b914ef9c35af294a0e482cd2c9d9569ca1e3e957c36b959d998a7",
        "NumeFees": "50000000000000000",
        "MintFees": "",
        "MintFeesToken": "",
        "CreatedAt": "2023-06-15T12:54:54.677328+05:30"
    },
    {
        "Id": 4,
        "From": "0xa9b39cb5ebf5deb0818561e8bc64092fbde34613",
        "To": "0x46714661eecb6f07065dcb4bf3d9b772dcefa63a",
        "AmountOrNftTokenId": "2110000000000000000",
        "Nonce": 1,
        "CurrencyOrNftContractAddress": "0xEe146Fac7b2fce5FdBE31C36d89cF92f6b006F80",
        "Type": "transfer",
        "Signature": "c448c9581649a73db60455f847c2360a58c07a3c9e50b0ab5c9392737324b45337d88dbe25ad86fb573562cf894fe5138850e428323f16e2ee2c18814dbf84d201",
        "IsInvalid": false,
        "L2Minted": false,
        "Data": "0x02f8af8202c601808601d1a94a20008261a894ee146fac7b2fce5fdbe31c36d89cf92f6b006f8080b844a9059cbb00000000000000000000000046714661eecb6f07065dcb4bf3d9b772dcefa63a0000000000000000000000000000000000000000000000001d4839d21c130000c001a0c448c9581649a73db60455f847c2360a58c07a3c9e50b0ab5c9392737324b453a037d88dbe25ad86fb573562cf894fe5138850e428323f16e2ee2c18814dbf84d2",
        "NumeFees": "50000000000000000",
        "MintFees": "",
        "MintFeesToken": "",
        "CreatedAt": "2023-06-15T12:54:54.692665+05:30"
    },
    {
        "Id": 5,
        "From": "0x46714661eecb6f07065dcb4bf3d9b772dcefa63a",
        "To": "0xa9b39cb5ebf5deb0818561e8bc64092fbde34613",
        "AmountOrNftTokenId": "150000",
        "Nonce": 1,
        "CurrencyOrNftContractAddress": "0xCE47C48fDF8c9355FDbE4DacC1e1954914D65Be6",
        "Type": "transfer",
        "Signature": "b9039c54ca0dc4e082ee0698ebddced7d3c54376d009658da1b9d315ac056fcd43b587218e13005c42dfdf5c447bc17265e0ec39b7db16a4654aa46e4da3398b00",
        "IsInvalid": false,
        "L2Minted": false,
        "Data": "0x02f8af8202c601808601d1a94a20008261a894ce47c48fdf8c9355fdbe4dacc1e1954914d65be680b844a9059cbb000000000000000000000000a9b39cb5ebf5deb0818561e8bc64092fbde3461300000000000000000000000000000000000000000000000000000000000249f0c080a0b9039c54ca0dc4e082ee0698ebddced7d3c54376d009658da1b9d315ac056fcda043b587218e13005c42dfdf5c447bc17265e0ec39b7db16a4654aa46e4da3398b",
        "NumeFees": "50000000000000000",
        "MintFees": "",
        "MintFeesToken": "",
        "CreatedAt": "2023-06-15T12:54:54.709185+05:30"
    },
    {
        "Id": 6,
        "From": "0xc8902116932225cc2e5d21d090574a54c10dc21b",
        "To": "0x1b34b2f706cda183e4818d2ceaf58253ccab3428",
        "AmountOrNftTokenId": "1100000000000000128",
        "Nonce": 1,
        "CurrencyOrNftContractAddress": "0xEe146Fac7b2fce5FdBE31C36d89cF92f6b006F80",
        "Type": "transfer",
        "Signature": "7102fa822c21430665971f8ae3dee14adf6301470a7fe5f52be8057b1071a2036ed468ea7c47fe5071eeeb957d70a9d0b8312eca93e4137a8cd046d344f4ba4300",
        "IsInvalid": false,
        "L2Minted": false,
        "Data": "0x02f8af8202c601808601d1a94a20008261a894ee146fac7b2fce5fdbe31c36d89cf92f6b006f8080b844a9059cbb0000000000000000000000001b34b2f706cda183e4818d2ceaf58253ccab34280000000000000000000000000000000000000000000000000f43fc2c04ee0080c080a07102fa822c21430665971f8ae3dee14adf6301470a7fe5f52be8057b1071a203a06ed468ea7c47fe5071eeeb957d70a9d0b8312eca93e4137a8cd046d344f4ba43",
        "NumeFees": "50000000000000000",
        "MintFees": "",
        "MintFeesToken": "",
        "CreatedAt": "2023-06-15T12:54:54.728466+05:30"
    },
    {
        "Id": 7,
        "From": "0x995227bd4dbfcd247fd7c97edba86c4ad46bfb05",
        "To": "0x1b34b2f706cda183e4818d2ceaf58253ccab3428",
        "AmountOrNftTokenId": "1728",
        "Nonce": 1,
        "CurrencyOrNftContractAddress": "0x799c6832d187243f3367902079A72fb3Fd61cdF7",
        "Type": "transfer",
        "Signature": "1b654aaf696799d6130d656f7ec153ade854657035e11ac5bd263f928727bd5a1ebd00078d5d42fea16794a9f15f0b9d3ab773358f5670e51061153cb7d6710000",
        "IsInvalid": false,
        "L2Minted": false,
        "Data": "0x02f8af8202c601808601d1a94a20008261a894799c6832d187243f3367902079a72fb3fd61cdf780b844a9059cbb0000000000000000000000001b34b2f706cda183e4818d2ceaf58253ccab342800000000000000000000000000000000000000000000000000000000000006c0c080a01b654aaf696799d6130d656f7ec153ade854657035e11ac5bd263f928727bd5aa01ebd00078d5d42fea16794a9f15f0b9d3ab773358f5670e51061153cb7d67100",
        "NumeFees": "50000000000000000",
        "MintFees": "",
        "MintFeesToken": "",
        "CreatedAt": "2023-06-15T12:54:54.743492+05:30"
    },
    {
        "Id": 1,
        "From": "mint.From",
        "To": "0x46714661eecb6f07065dcb4bf3d9b772dcefa63a",
        "AmountOrNftTokenId": "11",
        "Nonce": 0,
        "CurrencyOrNftContractAddress": "0xedb6375347e060b055d6af9842ba8c55e3d93e3a",
        "Type": "nft_mint",
        "Signature": "0x5f734f19d40efcb2c6f57e969160fad1058a2204253ec1f93f042c46ae619aaa13c36a04fb6ae79046ee3bfb9995064ae6a0c76fbe2e7ee36578b8e4b5a5fe941c",
        "IsInvalid": false,
        "L2Minted": true,
        "Data": "mint.Message",
        "NumeFees": "100000000000000000",
        "MintFees": "0",
        "MintFeesToken": "0xEe146Fac7b2fce5FdBE31C36d89cF92f6b006F80",
        "CreatedAt": "2023-06-15T12:55:33.283012+05:30"
    },
    {
        "Id": 2,
        "From": "mint.From",
        "To": "0x46714661eecb6f07065dcb4bf3d9b772dcefa63a",
        "AmountOrNftTokenId": "12",
        "Nonce": 0,
        "CurrencyOrNftContractAddress": "0xedb6375347e060b055d6af9842ba8c55e3d93e3a",
        "Type": "nft_mint",
        "Signature": "0x5f734f19d40efcb2c6f57e969160fad1058a2204253ec1f93f042c46ae619aaa13c36a04fb6ae79046ee3bfb9995064ae6a0c76fbe2e7ee36578b8e4b5a5fe941c",
        "IsInvalid": false,
        "L2Minted": true,
        "Data": "mint.Message",
        "NumeFees": "100000000000000000",
        "MintFees": "0",
        "MintFeesToken": "0xEe146Fac7b2fce5FdBE31C36d89cF92f6b006F80",
        "CreatedAt": "2023-06-15T12:55:36.078623+05:30"
    },
    {
        "Id": 3,
        "From": "mint.From",
        "To": "0x46714661eecb6f07065dcb4bf3d9b772dcefa63a",
        "AmountOrNftTokenId": "13",
        "Nonce": 0,
        "CurrencyOrNftContractAddress": "0xedb6375347e060b055d6af9842ba8c55e3d93e3a",
        "Type": "nft_mint",
        "Signature": "0x5f734f19d40efcb2c6f57e969160fad1058a2204253ec1f93f042c46ae619aaa13c36a04fb6ae79046ee3bfb9995064ae6a0c76fbe2e7ee36578b8e4b5a5fe941c",
        "IsInvalid": false,
        "L2Minted": true,
        "Data": "mint.Message",
        "NumeFees": "100000000000000000",
        "MintFees": "0",
        "MintFeesToken": "0xEe146Fac7b2fce5FdBE31C36d89cF92f6b006F80",
        "CreatedAt": "2023-06-15T12:55:38.815373+05:30"
    },
    {
        "Id": 1,
        "From": "0x46714661eecb6f07065dcb4bf3d9b772dcefa63a",
        "To": "0xdc42d1dd82217013b79eba43673912c4a3fc7bea",
        "AmountOrNftTokenId": "11",
        "Nonce": 2,
        "CurrencyOrNftContractAddress": "0xedb6375347e060b055d6af9842ba8c55e3d93e3a",
        "Type": "nft_transfer",
        "Signature": "de87cc906de6e72cef572728ff319b8abc52e4275c9792d217ecf063bd2ec65076a54fdbad11529d5210f7c51b386562437486a52d9bf073dcec2fb8e1baa4e800",
        "IsInvalid": false,
        "L2Minted": false,
        "Data": "0x02f8cf8202c602808601d1a94a20008261a894edb6375347e060b055d6af9842ba8c55e3d93e3a80b86423b872dd00000000000000000000000046714661eecb6f07065dcb4bf3d9b772dcefa63a000000000000000000000000dc42d1dd82217013b79eba43673912c4a3fc7bea000000000000000000000000000000000000000000000000000000000000000bc080a0de87cc906de6e72cef572728ff319b8abc52e4275c9792d217ecf063bd2ec650a076a54fdbad11529d5210f7c51b386562437486a52d9bf073dcec2fb8e1baa4e8",
        "NumeFees": "50000000000000000",
        "MintFees": "",
        "MintFeesToken": "",
        "CreatedAt": "2023-06-15T12:55:48.547909+05:30"
    },
    {
        "Id": 1,
        "From": "0xccff350ef46b85228d6650a802107e58bf6a32ab",
        "To": "0xCcFf350Ef46B85228d6650a802107e58BF6A32Ab",
        "AmountOrNftTokenId": "1420000000000000000",
        "Nonce": 2,
        "CurrencyOrNftContractAddress": "0xEe146Fac7b2fce5FdBE31C36d89cF92f6b006F80",
        "Type": "withdrawal",
        "Signature": "b36b6d800469294ebfd9d9e4cf879448cf79106439ec1e3e4064e1aceb3026d7448499e77e800e2a4b90195578274881614d63ff4e3b907346dd1bcbbc9f011001",
        "IsInvalid": false,
        "L2Minted": false,
        "Data": "0x02f8af8202c602808601d1a94a20008261a894ee146fac7b2fce5fdbe31c36d89cf92f6b006f8080b844a9059cbb000000000000000000000000ccff350ef46b85228d6650a802107e58bf6a32ab00000000000000000000000000000000000000000000000013b4da79fd0e0000c001a0b36b6d800469294ebfd9d9e4cf879448cf79106439ec1e3e4064e1aceb3026d7a0448499e77e800e2a4b90195578274881614d63ff4e3b907346dd1bcbbc9f0110",
        "NumeFees": "0",
        "MintFees": "",
        "MintFeesToken": "",
        "CreatedAt": "2023-06-15T12:55:56.955161+05:30"
    },
    {
        "Id": 2,
        "From": "0x1b34b2f706cda183e4818d2ceaf58253ccab3428",
        "To": "0x1b34B2f706cDA183E4818D2ceaF58253CcAb3428",
        "AmountOrNftTokenId": "1446",
        "Nonce": 2,
        "CurrencyOrNftContractAddress": "0x799c6832d187243f3367902079A72fb3Fd61cdF7",
        "Type": "withdrawal",
        "Signature": "133f44d4193ebfaee4d37ab87d30407eaad2e35899100971effcf0bfb1191ac5543467fdde64a6c3f23ece08c1135bdbb2b7caab7b432afd4b6de1cdfb2cdb7701",
        "IsInvalid": false,
        "L2Minted": false,
        "Data": "0x02f8af8202c602808601d1a94a20008261a894799c6832d187243f3367902079a72fb3fd61cdf780b844a9059cbb0000000000000000000000001b34b2f706cda183e4818d2ceaf58253ccab342800000000000000000000000000000000000000000000000000000000000005a6c001a0133f44d4193ebfaee4d37ab87d30407eaad2e35899100971effcf0bfb1191ac5a0543467fdde64a6c3f23ece08c1135bdbb2b7caab7b432afd4b6de1cdfb2cdb77",
        "NumeFees": "0",
        "MintFees": "",
        "MintFeesToken": "",
        "CreatedAt": "2023-06-15T12:55:56.983767+05:30"
    },
    {
        "Id": 3,
        "From": "0xa9b39cb5ebf5deb0818561e8bc64092fbde34613",
        "To": "0xa9B39CB5Ebf5DEB0818561e8bc64092FBde34613",
        "AmountOrNftTokenId": "917",
        "Nonce": 2,
        "CurrencyOrNftContractAddress": "0x799c6832d187243f3367902079A72fb3Fd61cdF7",
        "Type": "withdrawal",
        "Signature": "0f590a29f215d1b270551066b3777663fae6fa4f6ffd279c91939638fcfff94e5010c8a0e2b51226331d2a80b4b4b563bd7b187d3bcbafb43d6949e12e174e9200",
        "IsInvalid": false,
        "L2Minted": false,
        "Data": "0x02f8af8202c602808601d1a94a20008261a894799c6832d187243f3367902079a72fb3fd61cdf780b844a9059cbb000000000000000000000000a9b39cb5ebf5deb0818561e8bc64092fbde346130000000000000000000000000000000000000000000000000000000000000395c080a00f590a29f215d1b270551066b3777663fae6fa4f6ffd279c91939638fcfff94ea05010c8a0e2b51226331d2a80b4b4b563bd7b187d3bcbafb43d6949e12e174e92",
        "NumeFees": "0",
        "MintFees": "",
        "MintFeesToken": "",
        "CreatedAt": "2023-06-15T12:55:56.997376+05:30"
    },
    {
        "Id": 4,
        "From": "0x46714661eecb6f07065dcb4bf3d9b772dcefa63a",
        "To": "0x46714661eECB6F07065DCb4BF3D9b772dcefa63a",
        "AmountOrNftTokenId": "130000",
        "Nonce": 3,
        "CurrencyOrNftContractAddress": "0xCE47C48fDF8c9355FDbE4DacC1e1954914D65Be6",
        "Type": "withdrawal",
        "Signature": "48252f9378cf163436fee93a5ec14cacaeaa4c0a98085d5c04257b9d2a4e313052f13bf995e97fe7aaa221ce0d4425e71d6c40bd6478a0080508dc97d346605000",
        "IsInvalid": false,
        "L2Minted": false,
        "Data": "0x02f8af8202c603808601d1a94a20008261a894ce47c48fdf8c9355fdbe4dacc1e1954914d65be680b844a9059cbb00000000000000000000000046714661eecb6f07065dcb4bf3d9b772dcefa63a000000000000000000000000000000000000000000000000000000000001fbd0c080a048252f9378cf163436fee93a5ec14cacaeaa4c0a98085d5c04257b9d2a4e3130a052f13bf995e97fe7aaa221ce0d4425e71d6c40bd6478a0080508dc97d3466050",
        "NumeFees": "0",
        "MintFees": "",
        "MintFeesToken": "",
        "CreatedAt": "2023-06-15T12:55:57.013111+05:30"
    },
    {
        "Id": 5,
        "From": "0xc8902116932225cc2e5d21d090574a54c10dc21b",
        "To": "0xc8902116932225CC2e5D21d090574A54C10DC21b",
        "AmountOrNftTokenId": "1660000000000000000",
        "Nonce": 2,
        "CurrencyOrNftContractAddress": "0xEe146Fac7b2fce5FdBE31C36d89cF92f6b006F80",
        "Type": "withdrawal",
        "Signature": "6c04a4595fb4002c5ae510f8c815469096ae6ff7d39a6e7c02e066114dad1ed868ab6016eed9d06d818a0502e3ad0c56ac390a2597f3a302e638f77ef03971cf00",
        "IsInvalid": false,
        "L2Minted": false,
        "Data": "0x02f8af8202c602808601d1a94a20008261a894ee146fac7b2fce5fdbe31c36d89cf92f6b006f8080b844a9059cbb000000000000000000000000c8902116932225cc2e5d21d090574a54c10dc21b0000000000000000000000000000000000000000000000001709813477260000c080a06c04a4595fb4002c5ae510f8c815469096ae6ff7d39a6e7c02e066114dad1ed8a068ab6016eed9d06d818a0502e3ad0c56ac390a2597f3a302e638f77ef03971cf",
        "NumeFees": "0",
        "MintFees": "",
        "MintFeesToken": "",
        "CreatedAt": "2023-06-15T12:55:57.033462+05:30"
    },
    {
        "Id": 6,
        "From": "0x995227bd4dbfcd247fd7c97edba86c4ad46bfb05",
        "To": "0x995227bD4dBFCd247Fd7c97eDbA86C4Ad46bfB05",
        "AmountOrNftTokenId": "2892",
        "Nonce": 2,
        "CurrencyOrNftContractAddress": "0x799c6832d187243f3367902079A72fb3Fd61cdF7",
        "Type": "withdrawal",
        "Signature": "e1830372257cf598896c223ac72aac03b339ab68293de7e45b07f4e86b02bc6044c0b687cee604916e02db83bf1c0eb9c9742004a7ce3a678f63265aab46b00301",
        "IsInvalid": false,
        "L2Minted": false,
        "Data": "0x02f8af8202c602808601d1a94a20008261a894799c6832d187243f3367902079a72fb3fd61cdf780b844a9059cbb000000000000000000000000995227bd4dbfcd247fd7c97edba86c4ad46bfb050000000000000000000000000000000000000000000000000000000000000b4cc001a0e1830372257cf598896c223ac72aac03b339ab68293de7e45b07f4e86b02bc60a044c0b687cee604916e02db83bf1c0eb9c9742004a7ce3a678f63265aab46b003",
        "NumeFees": "0",
        "MintFees": "",
        "MintFeesToken": "",
        "CreatedAt": "2023-06-15T12:55:57.049104+05:30"
    },
    {
        "Id": 1,
        "From": "0xdc42d1dd82217013b79eba43673912c4a3fc7bea",
        "To": "0xDc42d1dd82217013B79EBA43673912C4a3fC7bEA",
        "AmountOrNftTokenId": "11",
        "Nonce": 1,
        "CurrencyOrNftContractAddress": "0xedb6375347e060b055d6af9842ba8c55e3d93e3a",
        "Type": "nft_withdrawal",
        "Signature": "f301941e56327538384f4d1b965029a0492214f50f4cb78b18ebda316311d65e287fb9f39d8e5aa963c32e027fae5cf3859579473f56b3c4bed10a3f2e107cb401",
        "IsInvalid": false,
        "L2Minted": true,
        "Data": "0x02f8cf8202c601808601d1a94a20008261a894edb6375347e060b055d6af9842ba8c55e3d93e3a80b86423b872dd000000000000000000000000dc42d1dd82217013b79eba43673912c4a3fc7bea000000000000000000000000dc42d1dd82217013b79eba43673912c4a3fc7bea000000000000000000000000000000000000000000000000000000000000000bc001a0f301941e56327538384f4d1b965029a0492214f50f4cb78b18ebda316311d65ea0287fb9f39d8e5aa963c32e027fae5cf3859579473f56b3c4bed10a3f2e107cb4",
        "NumeFees": "",
        "MintFees": "",
        "MintFeesToken": "",
        "CreatedAt": "2023-06-15T12:56:03.852955+05:30"
    },
    {
        "Id": 4,
        "From": "0x46714661eecb6f07065dcb4bf3d9b772dcefa63a",
        "To": "0x11c830b25a15e39006094377fdc409c11c002b48",
        "ListAmount": "221",
        "BuyAmount": "222",
        "Currency": "0xE9573B8A0AF951431bcBD194E8cc3AeE654Cd723",
        "ListerNonce": 1,
        "BuyerNonce": 3,
        "NftTokenId": "12",
        "NftContractAddress": "0xedb6375347e060b055d6af9842ba8c55e3d93e3a",
        "Type": "nft_trade",
        "ListSignature": "0x90f7d26c433930be92e02014ad53ce4ed651cb3b4d98f837f70feb70df29a3e7028089a87447a154799af9b6a99e477ca4aeaed1d955ae8aa7850fb4c1336d931c",
        "BuySignature": "0x418d7d7f20b4281e5443b16eef128a4a50b0b260b6fb201c601d662b30deb8ca098c1c65e3681f111aa580a3ab83b7f7f5b51e3976ceac529c76d81284ca12ca1b",
        "RoyaltyAmount": "0",
        "NumeFees": "300000000000000000",
        "L2Minted": true,
        "CreatedAt": "2023-06-13T19:31:46.950431+05:30"
    },
    {
        "Id": 1,
        "From": "0xe9e2d5240237955f5955c28cd9ee9d5f66800cf1",
        "To": "0xe9e2d5240237955f5955c28cd9ee9d5f66800cf1",
        "AmountOrNftTokenId": "10000",
        "Nonce": 0,
        "CurrencyOrNftContractAddress": "0xCE47C48fDF8c9355FDbE4DacC1e1954914D65Be6",
        "Type": "contract_withdrawal",
        "Data": "contract_withdrawal.Message",
        "Signature": "contract_withdrawal.Signature",
        "IsInvalid": false,
        "L2Minted": true,
        "NumeFees": "0",
        "MintFees": "",
        "MintFeesToken": "",
        "CreatedAt": "2023-04-12T12:14:31.822872+05:30"
    },
    {
        "Id": 1,
        "From": "0xe9e2d5240237955f5955c28cd9ee9d5f66800cf1",
        "To": "0xe9e2d5240237955f5955c28cd9ee9d5f66800cf1",
        "AmountOrNftTokenId": "10000",
        "Nonce": 0,
        "CurrencyOrNftContractAddress": "0xCE47C48fDF8c9355FDbE4DacC1e1954914D65Be6",
        "Type": "contract_withdrawal",
        "Data": "contract_withdrawal.Message",
        "Signature": "contract_withdrawal.Signature",
        "IsInvalid": true,
        "L2Minted": false,
        "NumeFees": "0",
        "MintFees": "",
        "MintFeesToken": "",
        "CreatedAt": "2023-04-12T12:14:31.822872+05:30"
    },
    {
        "Id": 1,
        "From": "0x46714661eecb6f07065dcb4bf3d9b772dcefa63a",
        "To": "0x46714661eecb6f07065dcb4bf3d9b772dcefa63a",
        "AmountOrNftTokenId": "13",
        "Nonce": 0,
        "CurrencyOrNftContractAddress": "0xedb6375347e060b055d6af9842ba8c55e3d93e3a",
        "Type": "nft_contract_withdrawal",
        "Data": "nft_contract_withdrawal.Message",
        "Signature": "nft_contract_withdrawal.Signature",
        "IsInvalid": true,
        "L2Minted": true,
        "NumeFees": "0",
        "MintFees": "",
        "MintFeesToken": "",
        "CreatedAt": "2023-04-12T12:14:31.822872+05:30"
    },
    {
        "Id": 1,
        "From": "0x46714661eecb6f07065dcb4bf3d9b772dcefa63a",
        "To": "0x46714661eecb6f07065dcb4bf3d9b772dcefa63a",
        "AmountOrNftTokenId": "13",
        "Nonce": 0,
        "CurrencyOrNftContractAddress": "0xedb6375347e060b055d6af9842ba8c55e3d93e3a",
        "Type": "nft_contract_withdrawal",
        "Data": "nft_contract_withdrawal.Message",
        "Signature": "nft_contract_withdrawal.Signature",
        "IsInvalid": false,
        "L2Minted": true,
        "NumeFees": "0",
        "MintFees": "",
        "MintFeesToken": "",
        "CreatedAt": "2023-04-12T12:14:31.822872+05:30"
    },
    {
        "Id": 1,
        "From": "deposit.From",
        "To": "0xdc42d1dd82217013b79eba43673912c4a3fc7bea",
        "AmountOrNftTokenId": "41",
        "Nonce": 0,
        "CurrencyOrNftContractAddress": "0xa4dcbdCE7c9480f3D56E319d63A74e84e74F9B2b",
        "Type": "nft_deposit",
        "Signature": "deposit.Signature",
        "IsInvalid": false,
        "L2Minted": false,
        "Data": "deposit.Message",
        "NumeFees": "0",
        "MintFees": "",
        "MintFeesToken": "",
        "CreatedAt": "2023-06-15T12:53:46.42713+05:30"
    },
    {
        "Id": 1,
        "From": "deposit.From",
        "To": "0xdc42d1dd82217013b79eba43673912c4a3fc7be1",
        "AmountOrNftTokenId": "45",
        "Nonce": 0,
        "CurrencyOrNftContractAddress": "0xa4dcbdCE7c9480f3D56E319d63A74e84e74F9B2b",
        "Type": "nft_deposit",
        "Signature": "deposit.Signature",
        "IsInvalid": false,
        "L2Minted": false,
        "Data": "deposit.Message",
        "NumeFees": "0",
        "MintFees": "",
        "MintFeesToken": "",
        "CreatedAt": "2023-06-15T12:53:46.42713+05:30"
    },
    {
        "Id": 1,
        "From": "mint.From",
        "To": "0x46714661eecb6f07065dcb4bf3d9b772dcefa63a",
        "AmountOrNftTokenId": "14",
        "Nonce": 0,
        "CurrencyOrNftContractAddress": "0xedb6375347e060b055d6af9842ba8c55e3d93e3a",
        "Type": "nft_mint",
        "Signature": "0x5f734f19d40efcb2c6f57e969160fad1058a2204253ec1f93f042c46ae619aaa13c36a04fb6ae79046ee3bfb9995064ae6a0c76fbe2e7ee36578b8e4b5a5fe941c",
        "IsInvalid": false,
        "L2Minted": true,
        "Data": "mint.Message",
        "NumeFees": "100000000000000000",
        "MintFees": "0",
        "MintFeesToken": "0xEe146Fac7b2fce5FdBE31C36d89cF92f6b006F80",
        "CreatedAt": "2023-06-15T12:55:33.283012+05:30"
    },
    {
        "Id": 5,
        "From": "0x46714661eecb6f07065dcb4bf3d9b772dcefa63a",
        "To": "0x447bF33F7c7C925eb7674bCF590AeD4Aa57e656b",
        "AmountOrNftTokenId": "14",
        "Nonce": 6,
        "CurrencyOrNftContractAddress": "0xedb6375347e060b055d6af9842ba8c55e3d93e3a",
        "Type": "nft_transfer",
        "Signature": "39984c935ee4abf67907b122517c09dbde1f945872f1fafa7664761b5131bc2a671ffd9d2a3cb073d7e83ba42695177d7205225ae5575ed971493a6b4779df4f00",
        "IsInvalid": false,
        "L2Minted": true,
        "Data": "0x02f8cf8202c606808601d1a94a20008261a894edb6375347e060b055d6af9842ba8c55e3d93e3a80b86423b872dd00000000000000000000000046714661eecb6f07065dcb4bf3d9b772dcefa63a000000000000000000000000447bf33f7c7c925eb7674bcf590aed4aa57e656b000000000000000000000000000000000000000000000000000000000000000ec080a039984c935ee4abf67907b122517c09dbde1f945872f1fafa7664761b5131bc2aa0671ffd9d2a3cb073d7e83ba42695177d7205225ae5575ed971493a6b4779df4f",
        "NumeFees": "50000000000000000",
        "MintFees": "",
        "MintFeesToken": "",
        "CreatedAt": "2023-06-15T12:54:54.709185+05:30"
    }
]
