[
    {
        "Id": 1,
        "From": "deposit.From",
        "To": "0xccff350ef46b85228d6650a802107e58bf6a32ab",
        "AmountOrNftTokenId": "2073684210526316",
        "Nonce": 0,
        "CurrencyOrNftContractAddress": "0x0b6D9aB4c80889b65A61050470CBC5523d8Ce48D",
        "Type": "deposit",
        "Signature": "deposit.Signature",
        "IsInvalid": false,
        "L2Minted": false,
        "Data": "deposit.Message",
        "NumeFees": "0",
        "MintFees": "",
        "MintFeesToken": "",
        "CreatedAt": "2023-06-21T11:19:47.62398+05:30"
    },
    {
        "Id": 2,
        "From": "deposit.From",
        "To": "0xccff350ef46b85228d6650a802107e58bf6a32ab",
        "AmountOrNftTokenId": "17710000000000000000",
        "Nonce": 0,
        "CurrencyOrNftContractAddress": "0xEe146Fac7b2fce5FdBE31C36d89cF92f6b006F80",
        "Type": "deposit",
        "Signature": "deposit.Signature",
        "IsInvalid": false,
        "L2Minted": false,
        "Data": "deposit.Message",
        "NumeFees": "0",
        "MintFees": "",
        "MintFeesToken": "",
        "CreatedAt": "2023-06-21T11:19:47.62398+05:30"
    },
    {
        "Id": 3,
        "From": "deposit.From",
        "To": "0x1b34b2f706cda183e4818d2ceaf58253ccab3428",
        "AmountOrNftTokenId": "8680000",
        "Nonce": 0,
        "CurrencyOrNftContractAddress": "0xCE47C48fDF8c9355FDbE4DacC1e1954914D65Be6",
        "Type": "deposit",
        "Signature": "deposit.Signature",
        "IsInvalid": false,
        "L2Minted": false,
        "Data": "deposit.Message",
        "NumeFees": "0",
        "MintFees": "",
        "MintFeesToken": "",
        "CreatedAt": "2023-06-21T11:19:47.62398+05:30"
    },
    {
        "Id": 4,
        "From": "deposit.From",
        "To": "0x1b34b2f706cda183e4818d2ceaf58253ccab3428",
        "AmountOrNftTokenId": "27600000000000000000",
        "Nonce": 0,
        "CurrencyOrNftContractAddress": "0xEe146Fac7b2fce5FdBE31C36d89cF92f6b006F80",
        "Type": "deposit",
        "Signature": "deposit.Signature",
        "IsInvalid": false,
        "L2Minted": false,
        "Data": "deposit.Message",
        "NumeFees": "0",
        "MintFees": "",
        "MintFeesToken": "",
        "CreatedAt": "2023-06-21T11:19:47.62398+05:30"
    },
    {
        "Id": 5,
        "From": "deposit.From",
        "To": "0x11c830b25a15e39006094377fdc409c11c002b48",
        "AmountOrNftTokenId": "17773",
        "Nonce": 0,
        "CurrencyOrNftContractAddress": "0x799c6832d187243f3367902079A72fb3Fd61cdF7",
        "Type": "deposit",
        "Signature": "deposit.Signature",
        "IsInvalid": false,
        "L2Minted": false,
        "Data": "deposit.Message",
        "NumeFees": "0",
        "MintFees": "",
        "MintFeesToken": "",
        "CreatedAt": "2023-06-21T11:19:47.62398+05:30"
    },
    {
        "Id": 6,
        "From": "deposit.From",
        "To": "0x11c830b25a15e39006094377fdc409c11c002b48",
        "AmountOrNftTokenId": "12450000000000000000",
        "Nonce": 0,
        "CurrencyOrNftContractAddress": "0xEe146Fac7b2fce5FdBE31C36d89cF92f6b006F80",
        "Type": "deposit",
        "Signature": "deposit.Signature",
        "IsInvalid": false,
        "L2Minted": false,
        "Data": "deposit.Message",
        "NumeFees": "0",
        "MintFees": "",
        "MintFeesToken": "",
        "CreatedAt": "2023-06-21T11:19:47.62398+05:30"
    },
    {
        "Id": 7,
        "From": "deposit.From",
        "To": "0x46714661eecb6f07065dcb4bf3d9b772dcefa63a",
        "AmountOrNftTokenId": "3720000",
        "Nonce": 0,
        "CurrencyOrNftContractAddress": "0xE9573B8A0AF951431bcBD194E8cc3AeE654Cd723",
        "Type": "deposit",
        "Signature": "deposit.Signature",
        "IsInvalid": false,
        "L2Minted": false,
        "Data": "deposit.Message",
        "NumeFees": "0",
        "MintFees": "",
        "MintFeesToken": "",
        "CreatedAt": "2023-06-21T11:19:47.62398+05:30"
    },
    {
        "Id": 8,
        "From": "deposit.From",
        "To": "0x46714661eecb6f07065dcb4bf3d9b772dcefa63a",
        "AmountOrNftTokenId": "11310000000000000000",
        "Nonce": 0,
        "CurrencyOrNftContractAddress": "0xEe146Fac7b2fce5FdBE31C36d89cF92f6b006F80",
        "Type": "deposit",
        "Signature": "deposit.Signature",
        "IsInvalid": false,
        "L2Minted": false,
        "Data": "deposit.Message",
        "NumeFees": "0",
        "MintFees": "",
        "MintFeesToken": "",
        "CreatedAt": "2023-06-21T11:19:47.62398+05:30"
    },
    {
        "Id": 1,
        "From": "mint.From",
        "To": "0x46714661eecb6f07065dcb4bf3d9b772dcefa63a",
        "AmountOrNftTokenId": "11",
        "Nonce": 1,
        "CurrencyOrNftContractAddress": "0xedb6375347e060b055d6af9842ba8c55e3d93e3a",
        "Type": "nft_mint",
        "Signature": "0x25d2d7963106e4227186c11655f75a15d5853a4842041000fabbb847e8fefa750e5e643211b0389ae4b4ac56db94661432d6aaea76a20c3cabd00b81c7e9307f1c",
        "IsInvalid": false,
        "L2Minted": true,
        "Data": "mint.Message",
        "NumeFees": "100000000000000000",
        "MintFees": "1000",
        "MintFeesToken": "0xEe146Fac7b2fce5FdBE31C36d89cF92f6b006F80",
        "CreatedAt": "2023-06-21T11:29:55.948876+05:30"
    },
    {
        "Id": 2,
        "From": "mint.From",
        "To": "0x46714661eecb6f07065dcb4bf3d9b772dcefa63a",
        "AmountOrNftTokenId": "12",
        "Nonce": 2,
        "CurrencyOrNftContractAddress": "0xedb6375347e060b055d6af9842ba8c55e3d93e3a",
        "Type": "nft_mint",
        "Signature": "0xe2216c187420e97a936a96335a33e9b06a44a85df6e0a16fd8d360bfc4b95d7d092d020b291effa186f44fd8b1b5d3d8b8ff955206fa29a39b44a2acf904b9f31c",
        "IsInvalid": false,
        "L2Minted": true,
        "Data": "mint.Message",
        "NumeFees": "100000000000000000",
        "MintFees": "1000",
        "MintFeesToken": "0xEe146Fac7b2fce5FdBE31C36d89cF92f6b006F80",
        "CreatedAt": "2023-06-21T11:29:58.059876+05:30"
    },
    {
        "Id": 3,
        "From": "mint.From",
        "To": "0x46714661eecb6f07065dcb4bf3d9b772dcefa63a",
        "AmountOrNftTokenId": "13",
        "Nonce": 3,
        "CurrencyOrNftContractAddress": "0xedb6375347e060b055d6af9842ba8c55e3d93e3a",
        "Type": "nft_mint",
        "Signature": "0x95804dc0a6b2f1482f5f151b3009bfa1622f5ecd2c6ad550a8496e503c95a6b84870a8b40e3d57c6bcc65cba3c4b735f3b50d34e632491915c956df153337ecb1b",
        "IsInvalid": false,
        "L2Minted": true,
        "Data": "mint.Message",
        "NumeFees": "100000000000000000",
        "MintFees": "1000",
        "MintFeesToken": "0xEe146Fac7b2fce5FdBE31C36d89cF92f6b006F80",
        "CreatedAt": "2023-06-21T11:29:58.925642+05:30"
    },
    {
        "Id": 4,
        "From": "mint.From",
        "To": "0x46714661eecb6f07065dcb4bf3d9b772dcefa63a",
        "AmountOrNftTokenId": "14",
        "Nonce": 4,
        "CurrencyOrNftContractAddress": "0xedb6375347e060b055d6af9842ba8c55e3d93e3a",
        "Type": "nft_mint",
        "Signature": "0x242e5899742ca746f3346f5756695c0630d9a435802c5089213aee6c10e58be46cef764189961b3adf74a4dbff2d7b663c6a0b41c8fb03123c0ccb7232c3eab01b",
        "IsInvalid": false,
        "L2Minted": true,
        "Data": "mint.Message",
        "NumeFees": "100000000000000000",
        "MintFees": "1000",
        "MintFeesToken": "0xEe146Fac7b2fce5FdBE31C36d89cF92f6b006F80",
        "CreatedAt": "2023-06-21T11:29:59.660764+05:30"
    },
    {
        "Id": 1,
        "From": "0xccff350ef46b85228d6650a802107e58bf6a32ab",
        "To": "0xe9e2d5240237955f5955c28cd9ee9d5f66800cf1",
        "AmountOrNftTokenId": "100000000000000000",
        "Nonce": 1,
        "CurrencyOrNftContractAddress": "0xEe146Fac7b2fce5FdBE31C36d89cF92f6b006F80",
        "Type": "transfer",
        "Signature": "161d2cdd202a70fec3c9da4f4be6f3b7da18f616e98a3a698f91511d09b4ffc82b1f6a2917e64d5779695b1c4c356c306ac06b444f6c76670533eb2362ffce7b00",
        "IsInvalid": false,
        "L2Minted": false,
        "Data": "0x02f8af8202c601808601d1a94a20008261a894ee146fac7b2fce5fdbe31c36d89cf92f6b006f8080b844a9059cbb000000000000000000000000e9e2d5240237955f5955c28cd9ee9d5f66800cf1000000000000000000000000000000000000000000000000016345785d8a0000c080a0161d2cdd202a70fec3c9da4f4be6f3b7da18f616e98a3a698f91511d09b4ffc8a02b1f6a2917e64d5779695b1c4c356c306ac06b444f6c76670533eb2362ffce7b",
        "NumeFees": "50000000000000000",
        "MintFees": "",
        "MintFeesToken": "",
        "CreatedAt": "2023-06-21T11:31:45.875228+05:30"
    },
    {
        "Id": 2,
        "From": "0x1b34b2f706cda183e4818d2ceaf58253ccab3428",
        "To": "0xccff350ef46b85228d6650a802107e58bf6a32ab",
        "AmountOrNftTokenId": "1060000000000000000",
        "Nonce": 1,
        "CurrencyOrNftContractAddress": "0xEe146Fac7b2fce5FdBE31C36d89cF92f6b006F80",
        "Type": "transfer",
        "Signature": "ee70bdeaaf590cb0e3585c2f54fc90a323dd80ea39ebdfd1a686ebf93ba0985754e2837c0f686be311c78c62eed8d338d85d27ae347667c58ff5ebf4079a186100",
        "IsInvalid": false,
        "L2Minted": false,
        "Data": "0x02f8af8202c601808601d1a94a20008261a894ee146fac7b2fce5fdbe31c36d89cf92f6b006f8080b844a9059cbb000000000000000000000000ccff350ef46b85228d6650a802107e58bf6a32ab0000000000000000000000000000000000000000000000000eb5e06245ea0000c080a0ee70bdeaaf590cb0e3585c2f54fc90a323dd80ea39ebdfd1a686ebf93ba09857a054e2837c0f686be311c78c62eed8d338d85d27ae347667c58ff5ebf4079a1861",
        "NumeFees": "50000000000000000",
        "MintFees": "",
        "MintFeesToken": "",
        "CreatedAt": "2023-06-21T11:31:45.906536+05:30"
    },
    {
        "Id": 3,
        "From": "0x11c830b25a15e39006094377fdc409c11c002b48",
        "To": "0x995227bd4dbfcd247fd7c97edba86c4ad46bfb05",
        "AmountOrNftTokenId": "170000000000000000",
        "Nonce": 1,
        "CurrencyOrNftContractAddress": "0xEe146Fac7b2fce5FdBE31C36d89cF92f6b006F80",
        "Type": "transfer",
        "Signature": "abf7eada2fb63981ce0fe5dc1df2162ff669056f2f8b79548767840dec390c5478c9097ac4bf680f54e5591e6097b8a485f3cb8b5748290451cc59d46fe83f7f00",
        "IsInvalid": false,
        "L2Minted": false,
        "Data": "0x02f8af8202c601808601d1a94a20008261a894ee146fac7b2fce5fdbe31c36d89cf92f6b006f8080b844a9059cbb000000000000000000000000995227bd4dbfcd247fd7c97edba86c4ad46bfb05000000000000000000000000000000000000000000000000025bf6196bd10000c080a0abf7eada2fb63981ce0fe5dc1df2162ff669056f2f8b79548767840dec390c54a078c9097ac4bf680f54e5591e6097b8a485f3cb8b5748290451cc59d46fe83f7f",
        "NumeFees": "50000000000000000",
        "MintFees": "",
        "MintFeesToken": "",
        "CreatedAt": "2023-06-21T11:31:45.929858+05:30"
    },
    {
        "Id": 4,
        "From": "0x46714661eecb6f07065dcb4bf3d9b772dcefa63a",
        "To": "0xa9b39cb5ebf5deb0818561e8bc64092fbde34613",
        "AmountOrNftTokenId": "360000",
        "Nonce": 5,
        "CurrencyOrNftContractAddress": "0xE9573B8A0AF951431bcBD194E8cc3AeE654Cd723",
        "Type": "transfer",
        "Signature": "1ebc862fb32c5fe092472d76bdc41013ad0e89f099c69c12001cee3551ecedea2fa8895d1fc6c13e620130231523ee70d7dc18d0e837956466aba7cc68d0af3100",
        "IsInvalid": false,
        "L2Minted": false,
        "Data": "0x02f8af8202c605808601d1a94a20008261a894e9573b8a0af951431bcbd194e8cc3aee654cd72380b844a9059cbb000000000000000000000000a9b39cb5ebf5deb0818561e8bc64092fbde346130000000000000000000000000000000000000000000000000000000000057e40c080a01ebc862fb32c5fe092472d76bdc41013ad0e89f099c69c12001cee3551ecedeaa02fa8895d1fc6c13e620130231523ee70d7dc18d0e837956466aba7cc68d0af31",
        "NumeFees": "50000000000000000",
        "MintFees": "",
        "MintFeesToken": "",
        "CreatedAt": "2023-06-21T11:31:45.949014+05:30"
    },
    {
        "Id": 5,
        "From": "0x995227bd4dbfcd247fd7c97edba86c4ad46bfb05",
        "To": "0x11c830b25a15e39006094377fdc409c11c002b48",
        "AmountOrNftTokenId": "60000000000000000",
        "Nonce": 1,
        "CurrencyOrNftContractAddress": "0xEe146Fac7b2fce5FdBE31C36d89cF92f6b006F80",
        "Type": "transfer",
        "Signature": "8d2b49c4242196022d9e3e6da2a83af3ab7313df515b313175d039b960b408026b1447d4603597c42cb80cd86a6fe1a0e0fadd85f9e0d1d5525be08be395236800",
        "IsInvalid": false,
        "L2Minted": false,
        "Data": "0x02f8af8202c601808601d1a94a20008261a894ee146fac7b2fce5fdbe31c36d89cf92f6b006f8080b844a9059cbb00000000000000000000000011c830b25a15e39006094377fdc409c11c002b4800000000000000000000000000000000000000000000000000d529ae9e860000c080a08d2b49c4242196022d9e3e6da2a83af3ab7313df515b313175d039b960b40802a06b1447d4603597c42cb80cd86a6fe1a0e0fadd85f9e0d1d5525be08be3952368",
        "NumeFees": "50000000000000000",
        "MintFees": "",
        "MintFeesToken": "",
        "CreatedAt": "2023-06-21T11:31:45.969718+05:30"
    },
    {
        "Id": 1,
        "From": "0x46714661eecb6f07065dcb4bf3d9b772dcefa63a",
        "To": "0x995227bd4dbfcd247fd7c97edba86c4ad46bfb05",
        "AmountOrNftTokenId": "11",
        "Nonce": 6,
        "CurrencyOrNftContractAddress": "0xedb6375347e060b055d6af9842ba8c55e3d93e3a",
        "Type": "nft_transfer",
        "Signature": "7c60c7e5bc72e6ea61c78012aded596ec9e8a915f01215ab8bec1daf008d34d54870bf3c3336f200028b51a6c9fcf5c89aeea69acf4f90fba673de6dc6bf896e00",
        "IsInvalid": false,
        "L2Minted": false,
        "Data": "0x02f8cf8202c606808601d1a94a20008261a894edb6375347e060b055d6af9842ba8c55e3d93e3a80b86423b872dd00000000000000000000000046714661eecb6f07065dcb4bf3d9b772dcefa63a000000000000000000000000995227bd4dbfcd247fd7c97edba86c4ad46bfb05000000000000000000000000000000000000000000000000000000000000000bc080a07c60c7e5bc72e6ea61c78012aded596ec9e8a915f01215ab8bec1daf008d34d5a04870bf3c3336f200028b51a6c9fcf5c89aeea69acf4f90fba673de6dc6bf896e",
        "NumeFees": "50000000000000000",
        "MintFees": "",
        "MintFeesToken": "",
        "CreatedAt": "2023-06-21T11:31:55.938354+05:30"
    },
    {
        "Id": 2,
        "From": "0x995227bd4dbfcd247fd7c97edba86c4ad46bfb05",
        "To": "0xccff350ef46b85228d6650a802107e58bf6a32ab",
        "AmountOrNftTokenId": "11",
        "Nonce": 2,
        "CurrencyOrNftContractAddress": "0xedb6375347e060b055d6af9842ba8c55e3d93e3a",
        "Type": "nft_transfer",
        "Signature": "489bed60216d145b5f6aff2a884490430f0ef9a59a7b2e9653b42e8ab994176b448731ba3a193deb385c4eb1871204b61a6622ba9a9846451ff49613004c3e3e01",
        "IsInvalid": false,
        "L2Minted": false,
        "Data": "0x02f8cf8202c602808601d1a94a20008261a894edb6375347e060b055d6af9842ba8c55e3d93e3a80b86423b872dd000000000000000000000000995227bd4dbfcd247fd7c97edba86c4ad46bfb05000000000000000000000000ccff350ef46b85228d6650a802107e58bf6a32ab000000000000000000000000000000000000000000000000000000000000000bc001a0489bed60216d145b5f6aff2a884490430f0ef9a59a7b2e9653b42e8ab994176ba0448731ba3a193deb385c4eb1871204b61a6622ba9a9846451ff49613004c3e3e",
        "NumeFees": "50000000000000000",
        "MintFees": "",
        "MintFeesToken": "",
        "CreatedAt": "2023-06-21T11:31:55.960298+05:30"
    },
    {
        "Id": 1,
        "From": "0xccff350ef46b85228d6650a802107e58bf6a32ab",
        "To": "0xCcFf350Ef46B85228d6650a802107e58BF6A32Ab",
        "AmountOrNftTokenId": "900000000000000000",
        "Nonce": 2,
        "CurrencyOrNftContractAddress": "0xEe146Fac7b2fce5FdBE31C36d89cF92f6b006F80",
        "Type": "withdrawal",
        "Signature": "2e4562c4c4e9dd38c40b7a9bb1e80e57ed94d40a37f6b071ea7b23e05a36c90156e5e79eacac04af2a10d4212c72790ad1ec43871e4b4be5bd01ec7c8abcc6a900",
        "IsInvalid": false,
        "L2Minted": false,
        "Data": "0x02f8af8202c602808601d1a94a20008261a894ee146fac7b2fce5fdbe31c36d89cf92f6b006f8080b844a9059cbb000000000000000000000000ccff350ef46b85228d6650a802107e58bf6a32ab0000000000000000000000000000000000000000000000000c7d713b49da0000c080a02e4562c4c4e9dd38c40b7a9bb1e80e57ed94d40a37f6b071ea7b23e05a36c901a056e5e79eacac04af2a10d4212c72790ad1ec43871e4b4be5bd01ec7c8abcc6a9",
        "NumeFees": "0",
        "MintFees": "",
        "MintFeesToken": "",
        "CreatedAt": "2023-06-21T11:32:02.344119+05:30"
    },
    {
        "Id": 2,
        "From": "0x1b34b2f706cda183e4818d2ceaf58253ccab3428",
        "To": "0x1b34B2f706cDA183E4818D2ceaF58253CcAb3428",
        "AmountOrNftTokenId": "520000",
        "Nonce": 2,
        "CurrencyOrNftContractAddress": "0xCE47C48fDF8c9355FDbE4DacC1e1954914D65Be6",
        "Type": "withdrawal",
        "Signature": "81331ad18bbdd9f2f7893205cb64275cc3762285ec48e1a75a731a7cb1be4094242929d45da962fe87ae8461ae8408208f54302184352039530ff9bb48ebc59900",
        "IsInvalid": false,
        "L2Minted": false,
        "Data": "0x02f8af8202c602808601d1a94a20008261a894ce47c48fdf8c9355fdbe4dacc1e1954914d65be680b844a9059cbb0000000000000000000000001b34b2f706cda183e4818d2ceaf58253ccab3428000000000000000000000000000000000000000000000000000000000007ef40c080a081331ad18bbdd9f2f7893205cb64275cc3762285ec48e1a75a731a7cb1be4094a0242929d45da962fe87ae8461ae8408208f54302184352039530ff9bb48ebc599",
        "NumeFees": "0",
        "MintFees": "",
        "MintFeesToken": "",
        "CreatedAt": "2023-06-21T11:32:02.380773+05:30"
    },
    {
        "Id": 3,
        "From": "0x11c830b25a15e39006094377fdc409c11c002b48",
        "To": "0x11c830B25a15E39006094377fDc409c11C002B48",
        "AmountOrNftTokenId": "550000000000000064",
        "Nonce": 2,
        "CurrencyOrNftContractAddress": "0xEe146Fac7b2fce5FdBE31C36d89cF92f6b006F80",
        "Type": "withdrawal",
        "Signature": "f16632bf9c604e6e1f043baea9fbb45b115adff56b8e9ae9b6273f8ab64a56df1e589c0324657c0f5200f96742f1fc528f8181fb908479bde20f79559c15115900",
        "IsInvalid": false,
        "L2Minted": false,
        "Data": "0x02f8af8202c602808601d1a94a20008261a894ee146fac7b2fce5fdbe31c36d89cf92f6b006f8080b844a9059cbb00000000000000000000000011c830b25a15e39006094377fdc409c11c002b4800000000000000000000000000000000000000000000000007a1fe1602770040c080a0f16632bf9c604e6e1f043baea9fbb45b115adff56b8e9ae9b6273f8ab64a56dfa01e589c0324657c0f5200f96742f1fc528f8181fb908479bde20f79559c151159",
        "NumeFees": "0",
        "MintFees": "",
        "MintFeesToken": "",
        "CreatedAt": "2023-06-21T11:32:02.411642+05:30"
    },
    {
        "Id": 1,
        "From": "0xccff350ef46b85228d6650a802107e58bf6a32ab",
        "To": "0xCcFf350Ef46B85228d6650a802107e58BF6A32Ab",
        "AmountOrNftTokenId": "11",
        "Nonce": 3,
        "CurrencyOrNftContractAddress": "0xedb6375347e060b055d6af9842ba8c55e3d93e3a",
        "Type": "nft_withdrawal",
        "Signature": "02a91b580348930f5ef20246f81c330b8e2944d435df1a392a9ade638ace25461dc3a96cca15b13c2068bedcf67ccfcc68c076a4dbc57e0ebb7a54dcc2672f4a00",
        "IsInvalid": false,
        "L2Minted": true,
        "Data": "0x02f8cf8202c603808601d1a94a20008261a894edb6375347e060b055d6af9842ba8c55e3d93e3a80b86423b872dd000000000000000000000000ccff350ef46b85228d6650a802107e58bf6a32ab000000000000000000000000ccff350ef46b85228d6650a802107e58bf6a32ab000000000000000000000000000000000000000000000000000000000000000bc080a002a91b580348930f5ef20246f81c330b8e2944d435df1a392a9ade638ace2546a01dc3a96cca15b13c2068bedcf67ccfcc68c076a4dbc57e0ebb7a54dcc2672f4a",
        "NumeFees": "",
        "MintFees": "",
        "MintFeesToken": "",
        "CreatedAt": "2023-06-21T11:33:59.64283+05:30"
    },
    {
        "Id": 2,
        "From": "0x46714661eecb6f07065dcb4bf3d9b772dcefa63a",
        "To": "0x46714661eECB6F07065DCb4BF3D9b772dcefa63a",
        "AmountOrNftTokenId": "13",
        "Nonce": 7,
        "CurrencyOrNftContractAddress": "0xedb6375347e060b055d6af9842ba8c55e3d93e3a",
        "Type": "nft_withdrawal",
        "Signature": "3155cfe659d941ef95cef4b7a49b8aea5a09294ebb7f962090f8b062166ed9174773eb1346f301179ed6a9cae51c17dddfd7706755e034fb06504070b4fdb0cf01",
        "IsInvalid": false,
        "L2Minted": true,
        "Data": "0x02f8cf8202c607808601d1a94a20008261a894edb6375347e060b055d6af9842ba8c55e3d93e3a80b86423b872dd00000000000000000000000046714661eecb6f07065dcb4bf3d9b772dcefa63a00000000000000000000000046714661eecb6f07065dcb4bf3d9b772dcefa63a000000000000000000000000000000000000000000000000000000000000000dc001a03155cfe659d941ef95cef4b7a49b8aea5a09294ebb7f962090f8b062166ed917a04773eb1346f301179ed6a9cae51c17dddfd7706755e034fb06504070b4fdb0cf",
        "NumeFees": "",
        "MintFees": "",
        "MintFeesToken": "",
        "CreatedAt": "2023-06-21T11:33:59.675051+05:30"
    },
    {
        "Id": 1,
        "From": "0xe9e2d5240237955f5955c28cd9ee9d5f66800cf1",
        "To": "0xe9e2d5240237955f5955c28cd9ee9d5f66800cf1",
        "AmountOrNftTokenId": "10000",
        "Nonce": 0,
        "CurrencyOrNftContractAddress": "0xEe146Fac7b2fce5FdBE31C36d89cF92f6b006F80",
        "Type": "contract_withdrawal",
        "Data": "contract_withdrawal.Message",
        "Signature": "contract_withdrawal.Signature",
        "IsInvalid": false,
        "L2Minted": true,
        "NumeFees": "0",
        "MintFees": "",
        "MintFeesToken": "",
        "CreatedAt": "2023-04-12T12:14:31.822872+05:30"
    },
    {
        "Id": 1,
        "From": "0xe9e2d5240237955f5955c28cd9ee9d5f66800cf1",
        "To": "0xe9e2d5240237955f5955c28cd9ee9d5f66800cf1",
        "AmountOrNftTokenId": "10000",
        "Nonce": 0,
        "CurrencyOrNftContractAddress": "0xEe146Fac7b2fce5FdBE31C36d89cF92f6b006F80",
        "Type": "contract_withdrawal",
        "Data": "contract_withdrawal.Message",
        "Signature": "contract_withdrawal.Signature",
        "IsInvalid": true,
        "L2Minted": false,
        "NumeFees": "0",
        "MintFees": "",
        "MintFeesToken": "",
        "CreatedAt": "2023-04-12T12:14:31.822872+05:30"
    },
    {
        "Id": 1,
        "From": "0x46714661eecb6f07065dcb4bf3d9b772dcefa63a",
        "To": "0x46714661eecb6f07065dcb4bf3d9b772dcefa63a",
        "AmountOrNftTokenId": "14",
        "Nonce": 0,
        "CurrencyOrNftContractAddress": "0xedb6375347e060b055d6af9842ba8c55e3d93e3a",
        "Type": "nft_contract_withdrawal",
        "Data": "nft_contract_withdrawal.Message",
        "Signature": "nft_contract_withdrawal.Signature",
        "IsInvalid": true,
        "L2Minted": true,
        "NumeFees": "0",
        "MintFees": "",
        "MintFeesToken": "",
        "CreatedAt": "2023-04-12T12:14:31.822872+05:30"
    },
    {
        "Id": 1,
        "From": "0x46714661eecb6f07065dcb4bf3d9b772dcefa63a",
        "To": "0x46714661eecb6f07065dcb4bf3d9b772dcefa63a",
        "AmountOrNftTokenId": "14",
        "Nonce": 0,
        "CurrencyOrNftContractAddress": "0xedb6375347e060b055d6af9842ba8c55e3d93e3a",
        "Type": "nft_contract_withdrawal",
        "Data": "nft_contract_withdrawal.Message",
        "Signature": "nft_contract_withdrawal.Signature",
        "IsInvalid": false,
        "L2Minted": true,
        "NumeFees": "0",
        "MintFees": "",
        "MintFeesToken": "",
        "CreatedAt": "2023-04-12T12:14:31.822872+05:30"
    },
    {
        "Id": 4,
        "From": "0x46714661eecb6f07065dcb4bf3d9b772dcefa63a",
        "To": "0x11c830b25a15e39006094377fdc409c11c002b48",
        "ListAmount": "221",
        "BuyAmount": "222",
        "Currency": "0xE9573B8A0AF951431bcBD194E8cc3AeE654Cd723",
        "ListerNonce": 1,
        "BuyerNonce": 3,
        "NftTokenId": "12",
        "NftContractAddress": "0xedb6375347e060b055d6af9842ba8c55e3d93e3a",
        "Type": "nft_trade",
        "ListSignature": "0xe382c77de0baa8ef97903853e6b709d8649280251b420ffb74fc95002be3c24604641ed5153b485db0f7cdbff3ce7d99d5bd91e392d998f6637b91f5e37624e41c",
        "BuySignature": "0x7f25e9c63bde263675dfb9c8f1b1d0a7099ad914a6337c687da16aa44c9336e32c4ccebb3bfddea33f600fb782b486e1c594f33c6b75d8852a643b89d91fde941c",
        "RoyaltyAmount": "0",
        "NumeFees": "300000000000000000",
        "L2Minted": true,
        "CreatedAt": "2023-06-13T19:31:46.950431+05:30"
    },
    {
        "Id": 3,
        "From": "0x11c830b25a15e39006094377fdc409c11c002b48",
        "To": "0x7771e6fe5245a04a94329a71b5c37aacc22ccf53",
        "AmountOrNftTokenId": "12",
        "Nonce": 12,
        "CurrencyOrNftContractAddress": "0xedb6375347e060b055d6af9842ba8c55e3d93e3a",
        "Type": "nft_transfer",
        "Signature": "b9caaad6949a3d47eb5718ad9fce7c0abb128a6ba97c72e39d882d38a443e0a52053ac4b3686b702425ea0ebfd2fa0f9ecf91a567315b6bb95bab380923511d600",
        "IsInvalid": false,
        "L2Minted": true,
        "Data": "0x02f8cf8202c60c808601d1a94a20008261a894edb6375347e060b055d6af9842ba8c55e3d93e3a80b86423b872dd00000000000000000000000011c830b25a15e39006094377fdc409c11c002b480000000000000000000000007771e6fe5245a04a94329a71b5c37aacc22ccf53000000000000000000000000000000000000000000000000000000000000000cc001a0b9caaad6949a3d47eb5718ad9fce7c0abb128a6ba97c72e39d882d38a443e0a5a02053ac4b3686b702425ea0ebfd2fa0f9ecf91a567315b6bb95bab380923511d6",
        "NumeFees": "50000000000000000",
        "MintFees": "",
        "MintFeesToken": "",
        "CreatedAt": "2023-06-22T11:31:55.938354+05:30"
    }
]
